{
  "contractName": "CryptographicCurrency",
  "abi": [
    {
      "anonymous": false,
      "inputs": [
        {
          "indexed": true,
          "internalType": "address",
          "name": "previousOwner",
          "type": "address"
        },
        {
          "indexed": true,
          "internalType": "address",
          "name": "newOwner",
          "type": "address"
        }
      ],
      "name": "OwnershipTransferred",
      "type": "event"
    },
    {
      "inputs": [
        {
          "internalType": "bytes32",
          "name": "",
          "type": "bytes32"
        },
        {
          "internalType": "uint256",
          "name": "",
          "type": "uint256"
        }
      ],
      "name": "currencyInfo",
      "outputs": [
        {
          "internalType": "string",
          "name": "",
          "type": "string"
        }
      ],
      "stateMutability": "view",
      "type": "function",
      "constant": true
    },
    {
      "inputs": [
        {
          "internalType": "uint256",
          "name": "",
          "type": "uint256"
        }
      ],
      "name": "hashList",
      "outputs": [
        {
          "internalType": "bytes32",
          "name": "",
          "type": "bytes32"
        }
      ],
      "stateMutability": "view",
      "type": "function",
      "constant": true
    },
    {
      "inputs": [],
      "name": "owner",
      "outputs": [
        {
          "internalType": "address",
          "name": "",
          "type": "address"
        }
      ],
      "stateMutability": "view",
      "type": "function",
      "constant": true
    },
    {
      "inputs": [],
      "name": "renounceOwnership",
      "outputs": [],
      "stateMutability": "nonpayable",
      "type": "function"
    },
    {
      "inputs": [
        {
          "internalType": "address",
          "name": "newOwner",
          "type": "address"
        }
      ],
      "name": "transferOwnership",
      "outputs": [],
      "stateMutability": "nonpayable",
      "type": "function"
    },
    {
      "inputs": [
        {
          "internalType": "string",
          "name": "coinSerial",
          "type": "string"
        },
        {
          "internalType": "string",
          "name": "coinName",
          "type": "string"
        },
        {
          "internalType": "string",
          "name": "coinType",
          "type": "string"
        },
        {
          "internalType": "string",
          "name": "creationTime",
          "type": "string"
        }
      ],
      "name": "generateCryptograhicHash",
      "outputs": [
        {
          "internalType": "uint256",
          "name": "",
          "type": "uint256"
        }
      ],
      "stateMutability": "nonpayable",
      "type": "function"
    },
    {
      "inputs": [
        {
          "internalType": "bytes32",
          "name": "hash",
          "type": "bytes32"
        }
      ],
      "name": "checkCoinInfo",
      "outputs": [
        {
          "internalType": "string",
          "name": "",
          "type": "string"
        },
        {
          "internalType": "string",
          "name": "",
          "type": "string"
        },
        {
          "internalType": "string",
          "name": "",
          "type": "string"
        },
        {
          "internalType": "string",
          "name": "",
          "type": "string"
        }
      ],
      "stateMutability": "view",
      "type": "function",
      "constant": true
    },
    {
      "inputs": [
        {
          "internalType": "bytes32",
          "name": "hash",
          "type": "bytes32"
        },
        {
          "internalType": "string",
          "name": "coinSerial",
          "type": "string"
        },
        {
          "internalType": "string",
          "name": "coinName",
          "type": "string"
        },
        {
          "internalType": "string",
          "name": "coinType",
          "type": "string"
        },
        {
          "internalType": "string",
          "name": "creationTime",
          "type": "string"
        }
      ],
      "name": "setCurrencyInfo",
      "outputs": [],
      "stateMutability": "nonpayable",
      "type": "function"
    },
    {
      "inputs": [],
      "name": "checkHashListLength",
      "outputs": [
        {
          "internalType": "uint256",
          "name": "",
          "type": "uint256"
        }
      ],
      "stateMutability": "view",
      "type": "function",
      "constant": true
    }
  ],
  "bytecode": "0x608060405234801561001057600080fd5b5060006100216100c460201b60201c565b9050806000806101000a81548173ffffffffffffffffffffffffffffffffffffffff021916908373ffffffffffffffffffffffffffffffffffffffff1602179055508073ffffffffffffffffffffffffffffffffffffffff16600073ffffffffffffffffffffffffffffffffffffffff167f8be0079c531659141344cd1fd0a4f28419497f9722a3daafe3b4186f6b6457e060405160405180910390a3506100cc565b600033905090565b61150e806100db6000396000f3fe608060405234801561001057600080fd5b50600436106100935760003560e01c80635950160111610066578063595016011461014957806360ee3f5714610165578063715018a6146101955780638da5cb5b1461019f578063f2fde38b146101bd57610093565b80632c8d41fd146100985780632cca4618146100c857806330391b38146100f85780635737ac7a1461012b575b600080fd5b6100b260048036038101906100ad9190610ff9565b6101d9565b6040516100bf919061114b565b60405180910390f35b6100e260048036038101906100dd9190610efa565b6101fd565b6040516100ef9190611166565b60405180910390f35b610112600480360381019061010d9190610dfa565b6102ad565b6040516101229493929190611188565b60405180910390f35b610133610632565b6040516101409190611229565b60405180910390f35b610163600480360381019061015e9190610e23565b61063f565b005b61017f600480360381019061017a9190610f36565b610747565b60405161018c9190611229565b60405180910390f35b61019d61088a565b005b6101a76109dd565b6040516101b49190611130565b60405180910390f35b6101d760048036038101906101d29190610dd1565b610a06565b005b600481815481106101e957600080fd5b906000526020600020016000915090505481565b6003602052816000526040600020816004811061021957600080fd5b0160009150915050805461022c90611349565b80601f016020809104026020016040519081016040528092919081815260200182805461025890611349565b80156102a55780601f1061027a576101008083540402835291602001916102a5565b820191906000526020600020905b81548152906001019060200180831161028857829003601f168201915b505050505081565b606080606080600060036000878152602001908152602001600020600060048110610301577f4e487b7100000000000000000000000000000000000000000000000000000000600052603260045260246000fd5b01805461030d90611349565b80601f016020809104026020016040519081016040528092919081815260200182805461033990611349565b80156103865780601f1061035b57610100808354040283529160200191610386565b820191906000526020600020905b81548152906001019060200180831161036957829003601f168201915b505050505090506000600360008881526020019081526020016000206001600481106103db577f4e487b7100000000000000000000000000000000000000000000000000000000600052603260045260246000fd5b0180546103e790611349565b80601f016020809104026020016040519081016040528092919081815260200182805461041390611349565b80156104605780601f1061043557610100808354040283529160200191610460565b820191906000526020600020905b81548152906001019060200180831161044357829003601f168201915b505050505090506000600360008981526020019081526020016000206002600481106104b5577f4e487b7100000000000000000000000000000000000000000000000000000000600052603260045260246000fd5b0180546104c190611349565b80601f01602080910402602001604051908101604052809291908181526020018280546104ed90611349565b801561053a5780601f1061050f5761010080835404028352916020019161053a565b820191906000526020600020905b81548152906001019060200180831161051d57829003601f168201915b505050505090506000600360008a815260200190815260200160002060036004811061058f577f4e487b7100000000000000000000000000000000000000000000000000000000600052603260045260246000fd5b01805461059b90611349565b80601f01602080910402602001604051908101604052809291908181526020018280546105c790611349565b80156106145780601f106105e957610100808354040283529160200191610614565b820191906000526020600020905b8154815290600101906020018083116105f757829003601f168201915b50505050509050838383839750975097509750505050509193509193565b6000600480549050905090565b610647610bc8565b73ffffffffffffffffffffffffffffffffffffffff1660008054906101000a900473ffffffffffffffffffffffffffffffffffffffff1673ffffffffffffffffffffffffffffffffffffffff16146106d4576040517f08c379a00000000000000000000000000000000000000000000000000000000081526004016106cb90611209565b60405180910390fd5b60405180608001604052808581526020018481526020018381526020018281525060036000878152602001908152602001600020906004610716929190610bd0565b5060048590806001815401808255809150506001900390600052602060002001600090919091909150555050505050565b6000610751610bc8565b73ffffffffffffffffffffffffffffffffffffffff1660008054906101000a900473ffffffffffffffffffffffffffffffffffffffff1673ffffffffffffffffffffffffffffffffffffffff16146107de576040517f08c379a00000000000000000000000000000000000000000000000000000000081526004016107d590611209565b60405180910390fd5b60008484846040516020016107f5939291906110ff565b6040516020818303038152906040528051906020012090506040518060800160405280878152602001868152602001858152602001848152506003600083815260200190815260200160002090600461084f929190610bd0565b506004819080600181540180825580915050600190039060005260206000200160009091909190915055600480549050915050949350505050565b610892610bc8565b73ffffffffffffffffffffffffffffffffffffffff1660008054906101000a900473ffffffffffffffffffffffffffffffffffffffff1673ffffffffffffffffffffffffffffffffffffffff161461091f576040517f08c379a000000000000000000000000000000000000000000000000000000000815260040161091690611209565b60405180910390fd5b600073ffffffffffffffffffffffffffffffffffffffff1660008054906101000a900473ffffffffffffffffffffffffffffffffffffffff1673ffffffffffffffffffffffffffffffffffffffff167f8be0079c531659141344cd1fd0a4f28419497f9722a3daafe3b4186f6b6457e060405160405180910390a360008060006101000a81548173ffffffffffffffffffffffffffffffffffffffff021916908373ffffffffffffffffffffffffffffffffffffffff160217905550565b60008060009054906101000a900473ffffffffffffffffffffffffffffffffffffffff16905090565b610a0e610bc8565b73ffffffffffffffffffffffffffffffffffffffff1660008054906101000a900473ffffffffffffffffffffffffffffffffffffffff1673ffffffffffffffffffffffffffffffffffffffff1614610a9b576040517f08c379a0000000000000000000000000000000000000000000000000000000008152600401610a9290611209565b60405180910390fd5b600073ffffffffffffffffffffffffffffffffffffffff168173ffffffffffffffffffffffffffffffffffffffff161415610b0b576040517f08c379a0000000000000000000000000000000000000000000000000000000008152600401610b02906111e9565b60405180910390fd5b8073ffffffffffffffffffffffffffffffffffffffff1660008054906101000a900473ffffffffffffffffffffffffffffffffffffffff1673ffffffffffffffffffffffffffffffffffffffff167f8be0079c531659141344cd1fd0a4f28419497f9722a3daafe3b4186f6b6457e060405160405180910390a3806000806101000a81548173ffffffffffffffffffffffffffffffffffffffff021916908373ffffffffffffffffffffffffffffffffffffffff16021790555050565b600033905090565b8260048101928215610c12579160200282015b82811115610c11578251829080519060200190610c01929190610c23565b5091602001919060010190610be3565b5b509050610c1f9190610ca9565b5090565b828054610c2f90611349565b90600052602060002090601f016020900481019282610c515760008555610c98565b82601f10610c6a57805160ff1916838001178555610c98565b82800160010185558215610c98579182015b82811115610c97578251825591602001919060010190610c7c565b5b509050610ca59190610ccd565b5090565b5b80821115610cc95760008181610cc09190610cea565b50600101610caa565b5090565b5b80821115610ce6576000816000905550600101610cce565b5090565b508054610cf690611349565b6000825580601f10610d085750610d27565b601f016020900490600052602060002090810190610d269190610ccd565b5b50565b6000610d3d610d3884611269565b611244565b905082815260208101848484011115610d5557600080fd5b610d60848285611307565b509392505050565b600081359050610d7781611493565b92915050565b600081359050610d8c816114aa565b92915050565b600082601f830112610da357600080fd5b8135610db3848260208601610d2a565b91505092915050565b600081359050610dcb816114c1565b92915050565b600060208284031215610de357600080fd5b6000610df184828501610d68565b91505092915050565b600060208284031215610e0c57600080fd5b6000610e1a84828501610d7d565b91505092915050565b600080600080600060a08688031215610e3b57600080fd5b6000610e4988828901610d7d565b955050602086013567ffffffffffffffff811115610e6657600080fd5b610e7288828901610d92565b945050604086013567ffffffffffffffff811115610e8f57600080fd5b610e9b88828901610d92565b935050606086013567ffffffffffffffff811115610eb857600080fd5b610ec488828901610d92565b925050608086013567ffffffffffffffff811115610ee157600080fd5b610eed88828901610d92565b9150509295509295909350565b60008060408385031215610f0d57600080fd5b6000610f1b85828601610d7d565b9250506020610f2c85828601610dbc565b9150509250929050565b60008060008060808587031215610f4c57600080fd5b600085013567ffffffffffffffff811115610f6657600080fd5b610f7287828801610d92565b945050602085013567ffffffffffffffff811115610f8f57600080fd5b610f9b87828801610d92565b935050604085013567ffffffffffffffff811115610fb857600080fd5b610fc487828801610d92565b925050606085013567ffffffffffffffff811115610fe157600080fd5b610fed87828801610d92565b91505092959194509250565b60006020828403121561100b57600080fd5b600061101984828501610dbc565b91505092915050565b61102b816112c1565b82525050565b61103a816112d3565b82525050565b600061104b8261129a565b61105581856112a5565b9350611065818560208601611316565b61106e8161140a565b840191505092915050565b60006110848261129a565b61108e81856112b6565b935061109e818560208601611316565b80840191505092915050565b60006110b76026836112a5565b91506110c28261141b565b604082019050919050565b60006110da6020836112a5565b91506110e58261146a565b602082019050919050565b6110f9816112fd565b82525050565b600061110b8286611079565b91506111178285611079565b91506111238284611079565b9150819050949350505050565b60006020820190506111456000830184611022565b92915050565b60006020820190506111606000830184611031565b92915050565b600060208201905081810360008301526111808184611040565b905092915050565b600060808201905081810360008301526111a28187611040565b905081810360208301526111b68186611040565b905081810360408301526111ca8185611040565b905081810360608301526111de8184611040565b905095945050505050565b60006020820190508181036000830152611202816110aa565b9050919050565b60006020820190508181036000830152611222816110cd565b9050919050565b600060208201905061123e60008301846110f0565b92915050565b600061124e61125f565b905061125a828261137b565b919050565b6000604051905090565b600067ffffffffffffffff821115611284576112836113db565b5b61128d8261140a565b9050602081019050919050565b600081519050919050565b600082825260208201905092915050565b600081905092915050565b60006112cc826112dd565b9050919050565b6000819050919050565b600073ffffffffffffffffffffffffffffffffffffffff82169050919050565b6000819050919050565b82818337600083830152505050565b60005b83811015611334578082015181840152602081019050611319565b83811115611343576000848401525b50505050565b6000600282049050600182168061136157607f821691505b60208210811415611375576113746113ac565b5b50919050565b6113848261140a565b810181811067ffffffffffffffff821117156113a3576113a26113db565b5b80604052505050565b7f4e487b7100000000000000000000000000000000000000000000000000000000600052602260045260246000fd5b7f4e487b7100000000000000000000000000000000000000000000000000000000600052604160045260246000fd5b6000601f19601f8301169050919050565b7f4f776e61626c653a206e6577206f776e657220697320746865207a65726f206160008201527f6464726573730000000000000000000000000000000000000000000000000000602082015250565b7f4f776e61626c653a2063616c6c6572206973206e6f7420746865206f776e6572600082015250565b61149c816112c1565b81146114a757600080fd5b50565b6114b3816112d3565b81146114be57600080fd5b50565b6114ca816112fd565b81146114d557600080fd5b5056fea264697066735822122064dc46c81d7e3db5b2ce67e5cd3e5040fc96def18c7e16de34f3463b8f3d583664736f6c63430008040033",
  "immutableReferences": {},
  "source": "// SPDX-License-Identifier: MIT\r\n\r\npragma solidity ^0.8.4;\r\n\r\n/*\r\n * @dev Provides information about the current execution context, including the\r\n * sender of the transaction and its data. While these are generally available\r\n * via msg.sender and msg.data, they should not be accessed in such a direct\r\n * manner, since when dealing with meta-transactions the account sending and\r\n * paying for execution may not be the actual sender (as far as an application\r\n * is concerned).\r\n *\r\n * This contract is only required for intermediate, library-like contracts.\r\n */\r\n\r\nabstract contract Context {\r\n    function _msgSender() internal view virtual returns (address payable) {\r\n        return payable(msg.sender);\r\n    }\r\n\r\n    function _msgData() internal view virtual returns (bytes memory) {\r\n        this; // silence state mutability warning without generating bytecode - see https://github.com/ethereum/solidity/issues/2691\r\n        return msg.data;\r\n    }\r\n}\r\n\r\ncontract Ownable is Context {\r\n    address private _owner;\r\n    address private _previousOwner;\r\n    uint256 private _lockTime;\r\n\r\n    event OwnershipTransferred(address indexed previousOwner, address indexed newOwner);\r\n\r\n    constructor () {\r\n        address msgSender = _msgSender();\r\n        _owner = msgSender;\r\n        emit OwnershipTransferred(address(0), msgSender);\r\n    }\r\n\r\n    function owner() public view returns (address) {\r\n        return _owner;\r\n    }   \r\n    \r\n    modifier onlyOwner() {\r\n        require(_owner == _msgSender(), \"Ownable: caller is not the owner\");\r\n        _;\r\n    }\r\n    \r\n    function renounceOwnership() public virtual onlyOwner {\r\n        emit OwnershipTransferred(_owner, address(0));\r\n        _owner = address(0);\r\n    }\r\n\r\n    function transferOwnership(address newOwner) public virtual onlyOwner {\r\n        require(newOwner != address(0), \"Ownable: new owner is the zero address\");\r\n        emit OwnershipTransferred(_owner, newOwner);\r\n        _owner = newOwner;\r\n    }\r\n}\r\n\r\ncontract CryptographicCurrency is Context, Ownable {\r\n    \r\n    mapping(bytes32 => string[4]) public currencyInfo;\r\n    bytes32 [] public hashList;\r\n    \r\n    function generateCryptograhicHash(string memory coinSerial, string memory coinName, string memory coinType, string memory creationTime) \r\n        external onlyOwner() returns(uint256)\r\n    {\r\n        bytes32 hash = keccak256(abi.encodePacked(coinName, coinType, creationTime));\r\n        currencyInfo[hash] = [coinSerial, coinName, coinType, creationTime];\r\n        hashList.push(hash);\r\n        return hashList.length;\r\n    }\r\n    \r\n    function checkCoinInfo(bytes32 hash) public view returns (string memory, string memory, string memory, string memory){\r\n        string memory coinSerial = currencyInfo[hash][0];\r\n        string memory coinName = currencyInfo[hash][1];\r\n        string memory coinType = currencyInfo[hash][2];\r\n        string memory creationTime = currencyInfo[hash][3];\r\n        \r\n        return (coinSerial, coinName, coinType, creationTime);\r\n    }\r\n    \r\n    function setCurrencyInfo(bytes32 hash, string memory coinSerial, string memory coinName, string memory coinType, string memory creationTime)\r\n        external onlyOwner()\r\n    {\r\n        currencyInfo[hash] = [coinSerial, coinName, coinType, creationTime];\r\n        hashList.push(hash);\r\n    }\r\n    \r\n    function checkHashListLength() public view returns(uint256) {\r\n        return hashList.length;\r\n    }\r\n}\r\n",
  "sourcePath": "C:/Users/DIVYA JAYACHANDRAN/Desktop/des/COIN/dapp/cryptographiccoin/src/contracts/cryptographicCoin.sol",
  "compiler": {
    "name": "solc",
    "version": "0.8.4+commit.c7e474f2.Emscripten.clang"
  },
  "schemaVersion": "3.3.4",
  "updatedAt": "2021-08-20T07:55:40.199Z",
  "networkType": "ethereum",
  "devdoc": {
    "kind": "dev",
    "methods": {},
    "version": 1
  },
  "userdoc": {
    "kind": "user",
    "methods": {},
    "version": 1
  }
}